:0400000090EF0DF080
:10000800F2A205D0010E01011E6F20710DD0F0A0E3
:1000180005D00101020E1E6F207106D0F0A204D097
:100028000101030E1E6F2071F292F090F092110000
:0C003800060E0D6E0D2EFED7000012000B
:0A004400F9DF8988F7DF89981200C0
:06004E000000000012009A
:100054007F0E01019915006E00C099F1899489966B
:10006400BF0E001600C099F1008C00C099F100C0C9
:0600740083FFE6DF12002D
:10007A00F250026EF29E0500FF6A0150FE6E0050B9
:08008A00FD6E02BEF28E1200B1
:1000920089948996B80E01019911836ED2DF1200FC
:1000A2007F0E01019915016E01C099F101AC03D0D7
:0C00B2008980899202D089908982120016
:1000BE00120E006E000E016E830E0024E16E0F0E06
:1000CE000120E26EFF0EE66EBBDFBADF89848998EF
:1000DE0089868988AADF83CF99F189988996B0DFBE
:1000EE00AFDF120E006E000E016E830E0024E16E65
:0E00FE000F0E0120E26EE66A99C100F01200BA
:0E010C0089988984899699C183FF96DF120035
:10011A00000E01018B5D0AE38B517F0807E3000E95
:10012A008C5D04E38C513F0801E301D04AD08BC1B6
:10013A0099F1B2DF8CC199F19933999F9933999FBB
:10014A009933999FA1DF8BC199F17FDFB3DF00C09B
:10015A0090F1B0DF00C090F18CC199F19933999F69
:10016A009933999F9933999F8FDF8BC199F16DDFED
:10017A00070E8C15006E00C08EF100C001F0010E52
:10018A00006E015004E000360090FF0FFBD700C05C
:10019A008EF1001C8F6F09D08F5190170FD08E519E
:1001AA0090130CD08E51901B09D08D51000AF4E0A7
:1001BA008D51010AF4E08D51020AF4E090C199F1DF
:0401CA00A0DF1200A0
:1001CE000B6A0A6A096A00500402F4CF09F0F3CFF1
:1001DE0008F001500502F4CF0BF0F3CF0AF00050F7
:1001EE000502F3500926F4500A22E86A0B22015048
:1001FE000402F3500926F4500A22E86A0B2208C0C2
:10020E0000F009C001F00AC002F00BC003F01200AA
:10021E002F0E0101976F010E986F000E006E905118
:10022E00005C02E18F51000843E239C1E1FF3AC19F
:10023E00E2FF8BC1E6FF8CC1E6FF8DC1E6FF8EC1EA
:10024E00E6FF8FC1E6FF90C1E6FF930EE66E010E4C
:10025E00E66E37C100F038C101F008DF00C095F13D
:10026E0001C096F10101916B926B9451925D02E186
:10027E009351915D11E295C1E9FF96C1EAFF97C1D5
:10028E00E1FF98C1E2FFEECFE6FF974B982B954B1F
:10029E00962B914B922BE9D793518F5F9451905B94
:1002AE0093518B2794518C23000E8D238E23B5D71B
:0202BE0012002C
:1002C0008BC129F18CC12AF18DC12BF1020E0101E4
:1002D0008B25F66E000E8C21F76E000E8D21F86EC8
:1002E0000900F5CF04F0030E8B25F66E000E8C216D
:1002F000F76E000E8D21F86E0900F5CF03F003C0F4
:1003000001F0006A04500024426F000E0120436F88
:10031000040E8B25F66E000E8C21F76E000E8D21DB
:10032000F86E0900F5CF04F0050E8B25F66E000E71
:100330008C21F76E000E8D21F86E0900F5CF03F0C9
:1003400003C001F0006A04500024446F000E012035
:10035000456F060E8B25F66E000E8C21F76E000E93
:100360008D21F86E0900F5CF23F1000E246F8EC1A8
:100370002DF1000E2E6F8FC12CF1010E0001E66FE2
:0803800001013F6B406B12000C
:100388000101716B736B746B100E756F040E745DE5
:1003980029E2F00E826E120E006E000E016E820EC1
:1003A8000024E16E0F0E0120E26E751D006E00C084
:1003B800E6FF49DE48DE0F0E8214006E00C072F1BF
:1003C80000520AE073C171F1725304E07233729FF4
:1003D800712BFAD7040E746F75377591040E732755
:0A03E800742BD4D771C100F012008D
:1003F2000101866B876B886B896B4351725D02E1E9
:100402004251715D01E2B4D17251455D02E1715117
:10041200445D01E2ADD14251715D036E43517259A7
:10042200046E03C000F004C001F0003600900136F3
:10043200003600900136080E3B258B6F000E3C21E2
:100442008C6F000E3D218D6F000E3E218E6F00508D
:100452008B2701508C23000E8D238E23040E8F6F69
:10046200000E906FDBDE2F0E846F010E856F84C14C
:10047200E9FF85C1EAFFEECF8AF18AC186F1010E5A
:100482008425E96E000E8521EA6EEECF04F0000E9F
:10049200056E066E076E020E8425E96E000E85213A
:1004A200EA6EEECF03F003C001F0006A000E026EA6
:1004B200036E045000260550012206500222075006
:1004C200032200503B25786F01503C21796F025086
:1004D2003D217A6F03503E217B6F8AC100F00032CA
:1004E200009E0032009E0032009E000E016E23C16B
:1004F20004F024C105F06ADE00C07EF101C07FF184
:10050200070E8A15006E04E023517E2724517F23B3
:100512007EC182F17FC183F139C1E1FF3AC1E2FFBD
:1005220078C1E6FF79C1E6FF7AC1E6FF7BC1E6FF4B
:100532007EC1E6FF7FC1E6FF7C0EE66E010EE66E2F
:1005420037C100F038C101F097DD00C084F101C06D
:1005520085F101017C5178277D517923000E7A23A0
:100562007B237C517E5F7D517F5B806B816B2C5145
:10057200000AD8A47ED027C175F128C176F1746B28
:10058200000E006E2451005C02E12351745D6AE2A8
:1005920025C187F126C188F1776B736B8651735D34
:1005A2005DE27751000A49E1804B812B83517D5DE9
:1005B20002E182517C5D37E281517D5D02E1805131
:1005C2007C5D31E2010E806F000E816F39C1E1FF67
:1005D2003AC1E2FF78C1E6FF79C1E6FF7AC1E6FFE0
:1005E2007BC1E6FF7EC1E6FF7FC1E6FF7C0EE66EC1
:1005F200010EE66E37C100F038C101F03DDD00C0EA
:1006020084F101C085F17EC182F17FC183F10101D4
:100612007C5178277D517923000E7A237B237C51EC
:100622007E5F7D517F5B84C1E9FF85C1EAFFEECF2A
:1006320089F1844B852B010E776F77518915006EF6
:1006420007E087C18BF175C18CF12DC18DF164DD9D
:10065200874B882B77377791732BA0D7754B762BE7
:10066200742B8ED7010E8725256F000E8821266FE9
:100672007FD025C175F126C176F1746B000E006E34
:100682002451005C02E12351745D6CE227C187F1C1
:1006920028C188F1776B736B8651735D5FE2775186
:1006A200000A49E1804B812B83517D5D02E1825139
:1006B2007C5D37E281517D5D02E180517C5D31E2FA
:1006C200010E806F000E816F39C1E1FF3AC1E2FF76
:1006D20078C1E6FF79C1E6FF7AC1E6FF7BC1E6FF9A
:1006E2007EC1E6FF7FC1E6FF7C0EE66E010EE66E7E
:1006F20037C100F038C101F0BFDC00C084F101C095
:1007020085F17EC182F17FC183F101017C5178279D
:100712007D517923000E7A237B237C517E5F7D51AC
:100722007F5B84C1E9FF85C1EAFFEECF89F1844B8B
:10073200852B010E776F77518915006E07E075C121
:100742008BF187C18CF12DC18DF1E6DC010E875F43
:10075200000E885B77377791732B9ED7754B762B7C
:10076200742B8CD7010E875D276F000E8859286F76
:02077200120073
:100774000101796B7A6B7B6B0001E651000A0EE193
:100784004E0E01018B6F1C0E8C6F000E8D6F010ECF
:100794008E6F8F6B93DD010E0001E66F000E006E0D
:1007A40001014351005C02E14251715D01E2E7D075
:1007B400000E455D02E17151445D01E2E0D0425119
:1007C400715D016E43C102F0000E025601C003F0D8
:1007D40002C004F003360390043603360390043653
:1007E400080E2925006E000E2A21016E000E2B2111
:1007F400026E000E056E00500326015004220250C2
:10080400052203C0F6FF04C0F7FF05C0F8FF090086
:10081400F5CF79F1010E0324F66E000E0420F76E75
:10082400000E0520F86E0900F5CF00F000C006F0B8
:10083400000E076E086E096E020E0324F66E000E9B
:100844000420F76E000E0520F86E0900F5CF03F0C2
:1008540003C001F0006A000E026E036E065000260B
:100864000750012208500222095003222951002472
:10087400766F2A510120776F2B510220786F2C510B
:10088400000A3FE127C174F1736B000E006E24511E
:10089400005C02E12351735D2DE225C17AF1756B91
:1008A400726B7951725D23E27551000A10E176C1D1
:1008B400F6FF77C1F7FF78C1F8FF0900F5CF7BF1A8
:1008C400010E7627000E77237823010E756F75517C
:1008D4007B15006E07E07AC18BF174C18CF12DC1D8
:1008E4008DF119DC7A2B75377591722BDAD7742B4D
:1008F400732BCBD77A51010F256F266B000E26235D
:100904003ED025C174F1736B000E006E2451005C5F
:1009140002E12351735D2EE227C17AF1756B726B8C
:100924007951725D24E27551000A10E176C1F6FF37
:1009340077C1F7FF78C1F8FF0900F5CF7BF1010E0D
:100944007627000E77237823010E756F75517B157A
:10095400006E08E074C18BF17AC18CF12DC18DF168
:100964008DEC00F07A0775377591722BD9D7742BFB
:10097400732BCAD77A05276F286B000E285B1200E9
:1009840071C125F172C126F173C127F174C128F137
:0209940012004F
:100996008990898201016B6B6B51070810E36BC16B
:1009A60099F149EC00F06A6B6A513F0806E369C1A8
:1009B60099F186EC00F06A2BF7D76B2BEDD789926D
:1009C60089806B6B6B51070810E36BC199F149EC99
:1009D60000F06A6B6A513F0806E369C199F186EC3B
:0C09E60000F06A2BF7D76B2BEDD7120046
:1009F200CADC00C01DF10050010A02E1010E216FA4
:100A02001D51020A02E1020E216F1D510C0A02E180
:100A1200030E216F1D51050A02E1040E216F1D51C3
:100A2200060A02E1050E216F1D510D0A02E1060EB2
:100A3200216F1D51090A02E1070E216F1D510A0A99
:100A420002E1080E216F1D510E0A02E1090E216F0B
:020A5200120090
:100A540001016D6B6E6B6F6B6D51070845E3996B0C
:100A640051EC00F06DC199F149EC00F0996B2AEC5E
:100A740000F06C6B6C513F0812E36E516925F66E01
:100A84006F516A21F76E000E6B21F86E0900F5CFE5
:100A940099F186EC00F06E4B6F2B6C2BEBD7400E6C
:100AA400996F51EC00F06DC199F149EC00F0400EE2
:100AB400996F2AEC00F0400E6C6F6C517F0812E3C2
:100AC4006E516925F66E6F516A21F76E000E6B2127
:100AD400F86E0900F5CF99F186EC00F06E4B6F2BA0
:0A0AE4006C2BEBD76D2BB8D7120076
:100AEE00000E01016C5D02E1800E6B5D01E339D0F9
:100AFE00000E6E5D02E1400E6D5D01E332D06F6B54
:100B0E00706B6BC171F16CC172F16DC173F16EC11D
:100B1E0074F131DF6F516925E96E70516A21EA6E09
:100B2E00EE521FE03F51401110E06F516925E96E02
:100B3E0070516A21EA6EEECF71F1000E726F000EE7
:100B4E00726F50DC6F4B702B0BD06F516925E96EB5
:100B5E0070516A21EA6EEECF71F105DE6F4B702B8C
:040B6E00D9D71200C1
:100B7200010E0101696F360E6A6F000E6B6F69DF3D
:100B8200040E0B6E0C0E0C6E330E0D6E0D2EFED778
:100B92000C2EFCD70B2EFAD70000000029DF696B60
:100BA200F9DE0B0E696F010E6A6F320E6B6F000E6B
:100BB2006C6F050E6D6F000E6E6F98DF040E0B6E7C
:100BC2000C0E0C6E330E0D6E0D2EFED70C2EFCD7B6
:100BD2000B2EFAD7000000000BDF050E696F010E25
:100BE2006A6F460E6B6F000E6C6F050E6D6F000E16
:100BF2006E6F7CDF040E0B6E0C0E0C6E330E0D6EE0
:100C02000D2EFED70C2EFCD70B2EFAD700000000BB
:100C1200EFDE170E696F010E6A6F1E0E6B6F000E0C
:100C22006C6F140E6D6F000E6E6F60DF040E0B6E34
:100C32000C0E0C6E330E0D6E0D2EFED70C2EFCD745
:100C42000B2EFAD700000000D3DE0E0E696F010EE4
:100C52006A6F460E6B6F000E6C6F140E6D6F000E96
:100C62006E6F44DF040E0B6E0C0E0C6E330E0D6EA7
:100C72000D2EFED70C2EFCD70B2EFAD7000000004B
:100C8200B7DE450E696F000E6A6F320E6B6F000E93
:100C92006C6F230E6D6F000E6E6F28DF040E0B6EED
:100CA2000C0E0C6E330E0D6E0D2EFED70C2EFCD7D5
:100CB2000B2EFAD7000000009BDE010E696F360E84
:100CC2006A6F000E6B6FC5DE040E0B6E0C0E0C6E9F
:100CD200330E0D6E0D2EFED70C2EFCD70B2EFAD72F
:080CE2000000000085DE120095
:100CEA0001015B6B5C6B5D6B5E6B5F6B606B616B79
:100CFA00626B4A514625006E4B514721016E010E27
:100D0A00005C026E000E0158036E000E006E035066
:100D1A00005C02E102507F0807E2465180084A6FF0
:100D2A0047C14BF1000E4B574C514825006E4D51AF
:100D3A004921016E010E005C026E000E0158036E1D
:100D4A00000E006E0350005C02E102503F0807E209
:100D5A00485140084C6F49C14DF1000E4D5748C1EA
:100D6A0000F049C101F001320032019E0132003225
:100D7A00019E01320032019E00C055F14C514825B6
:100D8A00056E4D514921066E010E055C036E000E7B
:100D9A000658046E03C000F004C001F001320032AC
:100DAA00019E01320032019E01320032019E00C0D2
:100DBA0056F1070E4815006E49C101F0000E0116E2
:100DCA0000C058F1070E0514006E06C001F0000EAF
:100DDA00011600C059F151514D5D02E150514C5D6F
:100DEA0003E256C15AF11BD050514825006E5151A9
:100DFA004921016E010E005C036E000E0158046E5B
:100E0A0003C000F004C001F001320032019E013239
:100E1A000032019E01320032019E00C05AF1070ED3
:100E2A005015016E51C102F0000E0216000E021892
:100E3A0002E1000E011818E150C100F051C101F0A1
:100E4A0001320032019E01320032019E013200322B
:100E5A00019E4EC104F04FC105F0E7EC00F000C05E
:100E6A0065F101C066F119D050C100F051C101F01D
:100E7A0001320032019E01320032019E01320032FB
:100E8A00019E004A012A4EC104F04FC105F0E7EC69
:100E9A0000F000C065F101C066F155C15BF1000EBA
:100EAA005C6F000E006E5C51005C02E15B51565DA6
:100EBA00D8A003D1636B646B5D6B5E6B4B515E5D57
:100ECA0002E14A515D5DD8B0E7D05D514625996F80
:100EDA0051EC00F05BC199F149EC00F04F515E5DB5
:100EEA0002E14E515D5D3DE2000E006E5C51005C18
:100EFA0002E15B515A5D35E3000E5C1902E155517E
:100F0A005B1902E1676B12D061516325006E625171
:100F1A006421016E00505225F66E01505321F76E7E
:100F2A00000E5421F86E0900F5CF67F16651605D35
:100F3A0002E165515F5D02E3686B12D05F51632580
:100F4A00006E60516421016E00505225F66E015008
:100F5A005321F76E000E5421F86E0900F5CF68F19F
:100F6A0002D0686B676B68C157F1585100081AE2E2
:100F7A0058510808006E016A000E015A67C157F1FC
:100F8A00005004E05733579FFF0FFBD758C101F0B9
:100F9A0068C100F0015004E000360090FF0FFBD753
:100FAA0000505713000E5C1902E155515B192DE1EF
:100FBA00585100082AE25D514625996F2AEC00F043
:100FCA005FEC00F05FEC00F058510808016E026A0D
:100FDA00000E025A01C002F0FF0E016E025004E038
:100FEA000132019EFF0FFBD701500014026E58C157
:100FFA0001F0FF0E006E015004E000360090FF0F72
:10100A00FBD70050571702505713000E5C1902E124
:10101A0056515B192DE1595100082AE25D514625C6
:10102A00996F2AEC00F05FEC00F05FEC00F059C118
:10103A0002F0FF0E016E025004E001360190FF0F2C
:10104A00FBD701500014026E59510808006E016A5C
:10105A00000E015A00C001F0FF0E006E015004E0BC
:10106A000032009EFF0FFBD700505717025057134C
:10107A004F515E5D02E14E515D5D02E2634B642BAE
:10108A005D514625996F2AEC00F057C199F186EC1B
:10109A0000F05D4B5E2B12D7000E5C5D02E15A51E7
:1010AA005B5D08E25FC161F160C162F14E515F2789
:0C10BA004F5160235B4B5C2BF4D61200FE
:1010C600010E0101696F360E6A6F000E6B6FBFDC91
:1010D6000B0E0B6E260E0C6E5D0E0D6E0D2EFED7D4
:1010E6000C2EFCD70B2EFAD7000000007FDC696BB4
:1010F6004FDC4B0E696F000E6A6F320E6B6F000E7F
:101106006C6F050E6D6F000E6E6FEEDC600E696F14
:10111600000E6A6F460E6B6F000E6C6F050E6D6FDC
:10112600000E6E6FE1DC660E696F000E6A6F1E0EB2
:101136006B6F000E6C6F140E6D6F000E6E6FD4DC4D
:10114600570E696F000E6A6F460E6B6F000E6C6F5E
:10115600140E6D6F000E6E6FC7DC4E0E696F000EBB
:101166006A6F320E6B6F000E6C6F230E6D6F000E82
:101176006E6FBADC040E0B6E0C0E0C6E330E0D6E1B
:101186000D2EFED70C2EFCD70B2EFAD70000000032
:101196002DDC696BCBEC04F0540E696F000E6A6FA0
:1011A600320E6B6F000E6C6F050E6D6F000E6E6F5C
:1011B6009BDC270E696F000E6A6F460E6B6F000E82
:1011C6006C6F050E6D6F000E6E6F8EDC2D0E696FE7
:1011D600000E6A6F1E0E6B6F000E6C6F140E6D6F35
:1011E600000E6E6F81DC1E0E696F000E6A6F460E72
:1011F6006B6F000E6C6F140E6D6F000E6E6F74DCED
:10120600040E0B6E0C0E0C6E330E0D6E0D2EFED7ED
:101216000C2EFCD70B2EFAD700000000F9EC04F0D8
:10122600696BCBEC04F0150E696F000E6A6F320E17
:101236006B6F000E6C6F050E6D6F000E6E6F54DCDB
:10124600180E696F000E6A6F460E6B6F000E6C6F9C
:10125600050E6D6F000E6E6F47DC330E696F000E64
:101266006A6F1E0E6B6F000E6C6F140E6D6F000EA4
:101276006E6F3ADC040E0B6E0C0E0C6E330E0D6E9A
:101286000D2EFED70C2EFCD70B2EFAD70000000031
:10129600F9EC04F0696BCBEC04F03C0E696F000EC0
:1012A6006A6F320E6B6F000E6C6F050E6D6F000E5F
:1012B6006E6F1ADC3F0E696F000E6A6F460E6B6F1B
:1012C600000E6C6F050E6D6F000E6E6F0DDC040E5A
:1012D6000B6E0C0E0C6E330E0D6E0D2EFED70C2EF5
:1012E600FCD70B2EFAD700000000F9EC04F0696B6E
:1012F600CBEC04F0390E696F000E6A6F320E6B6F1D
:10130600000E6C6F050E6D6F000E6E6F77EC05F0BC
:10131600040E0B6E0C0E0C6E330E0D6E0D2EFED7DC
:101326000C2EFCD70B2EFAD700000000F9EC04F0C7
:10133600696BCBEC04F0010E696F360E6A6F000E16
:081346006B6F2AEC05F01200A8
:10134E000101416B3F6B406B929A929892949296E8
:10135E0092909292899A120E006E000E016E830E7A
:10136E000024E16E0F0E0120E26EE66A89948996E2
:10137E0089908982898A3F0E836E22EC00F0C00E1E
:10138E00836E22EC00F0898089923F0E836E22ECF0
:0C139E0000F0C00E836E22EC00F0120084
:1013AA00120E006E000E016E820E0024E16E0F0E08
:0A13BA000120E26EFF0EE66E120045
:1013C4000900F5CFE6FF0006FBE10106F9E1120092
:1013D400020E01011F5DD8A040D12151020A20E173
:1013E400696BCBEC04F01FC146F1000E476F486BEC
:1013F400496B800E4A6F000E4B6F400E4C6F000E0F
:101404004D6F800E4E6F000E4F6F400E506F000EEA
:10141400516F010E526F320E536F000E546F63DC26
:101424002151030A20E1696BCBEC04F01FC146F1A2
:10143400000E476F486B496B800E4A6F000E4B6F6E
:10144400400E4C6F000E4D6F800E4E6F000E4F6FAE
:10145400400E506F000E516F010E526F3A0E536FD3
:10146400000E546F40DC2151040A20E1696BCBEC7F
:1014740004F01FC146F1000E476F486B496B800EA4
:101484004A6F000E4B6F400E4C6F000E4D6F800E76
:101494004E6F000E4F6F400E506F000E516F010ED5
:1014A400526F420E536F000E546F1DDC2151050A1A
:1014B40021E1696BCBEC04F01FC146F1000E476FCC
:1014C400486B496B800E4A6F000E4B6F400E4C6F99
:1014D400000E4D6F800E4E6F000E4F6F400E506F1A
:1014E400000E516F010E526F3E0E536F000E546F7B
:1014F40075EC06F02151060A21E1696BCBEC04F08E
:101504001FC146F1000E476F486B496B800E4A6F4E
:10151400000E4B6F400E4C6F000E4D6F800E4E6FE1
:10152400000E4F6F400E506F000E516F010E526F40
:10153400260E536F000E546F75EC06F02151070A06
:1015440021E1696BCBEC04F01FC146F1000E476F3B
:10155400486B496B800E4A6F000E4B6F400E4C6F08
:10156400000E4D6F800E4E6F000E4F6F400E506F89
:10157400000E516F010E526F220E536F000E546F06
:1015840075EC06F02151080A21E1696BCBEC04F0FB
:101594001FC146F1000E476F486B496B800E4A6FBE
:1015A400000E4B6F400E4C6F000E4D6F800E4E6F51
:1015B400000E4F6F400E506F000E516F010E526FB0
:1015C4002E0E536F000E546F75EC06F02151090A6C
:1015D40021E1696BCBEC04F01FC146F1000E476FAB
:1015E400486B496B800E4A6F000E4B6F400E4C6F78
:1015F400000E4D6F800E4E6F000E4F6F400E506FF9
:10160400000E516F010E526F2A0E536F000E546F6D
:1016140075EC06F02151010A04E1696BCBEC04F08E
:1016240050DD020E0B6E040E0C6EBA0E0D6E0D2EF6
:10163400FED70C2EFCD70B2EFAD70000F9EC04F0E1
:101644001FC122F11F51020802E3780E1F6F20A16F
:0C16540001D003D0020E1F5FBBD61200B5
:1016600001012151020A1EE122C146F1000E476F1D
:10167000486B496B800E4A6F000E4B6F400E4C6FEB
:10168000000E4D6F800E4E6F000E4F6F400E506F6C
:10169000000E516F010E526F320E536F000E546FD9
:1016A00075EC06F02151030A1EE122C146F1000E3D
:1016B000476F486B496B800E4A6F000E4B6F400EB0
:1016C0004C6F000E4D6F800E4E6F000E4F6F400E30
:1016D000506F000E516F010E526F3A0E536F000E95
:1016E000546F75EC06F02151040A1EE122C146F147
:1016F000000E476F486B496B800E4A6F000E4B6FB0
:10170000400E4C6F000E4D6F800E4E6F000E4F6FEF
:10171000400E506F000E516F010E526F420E536F0C
:10172000000E546F75EC06F02151050A1EE122C12E
:1017300046F1000E476F486B496B800E4A6F000EF2
:101740004B6F400E4C6F000E4D6F800E4E6F000EB3
:101750004F6F400E506F000E516F010E526F3E0ED4
:10176000536F000E546F75EC06F02151060A1EE10E
:1017700022C146F1000E476F486B496B800E4A6FDD
:10178000000E4B6F400E4C6F000E4D6F800E4E6F73
:10179000000E4F6F400E506F000E516F010E526FD2
:1017A000260E536F000E546F75EC06F02151070A98
:1017B0001EE122C146F1000E476F486B496B800E57
:1017C0004A6F000E4B6F400E4C6F000E4D6F800E37
:1017D0004E6F000E4F6F400E506F000E516F010E96
:1017E000526F220E536F000E546F75EC06F02151AC
:1017F000080A1EE122C146F1000E476F486B496B93
:10180000800E4A6F000E4B6F400E4C6F000E4D6FF6
:10181000800E4E6F000E4F6F400E506F000E516FD6
:10182000010E526F2E0E536F000E546F75EC06F0C2
:101830002151090A1EE122C146F1000E476F486B93
:10184000496B800E4A6F000E4B6F400E4C6F000EBE
:101850004D6F800E4E6F000E4F6F400E506F000E9A
:10186000516F010E526F2A0E536F000E546F75ECBC
:1018700006F02151010A08E1010E696F360E6A6F08
:0E188000000E6B6F2AEC05F0F9EC04F012007C
:10188E00010122517808D8A043D12151020A21E149
:10189E00696BCBEC04F022C146F1000E476F486B2A
:1018AE00496B800E4A6F000E4B6F400E4C6F000E50
:1018BE004D6F800E4E6F000E4F6F400E506F000E2C
:1018CE00516F010E526F320E536F000E546F75EC46
:1018DE0006F02151030A21E1696BCBEC04F022C121
:1018EE0046F1000E476F486B496B800E4A6F000E33
:1018FE004B6F400E4C6F000E4D6F800E4E6F000EF4
:10190E004F6F400E506F000E516F010E526F3A0E18
:10191E00536F000E546F75EC06F02151040A21E14D
:10192E00696BCBEC04F022C146F1000E476F486B99
:10193E00496B800E4A6F000E4B6F400E4C6F000EBF
:10194E004D6F800E4E6F000E4F6F400E506F000E9B
:10195E00516F010E526F420E536F000E546F75ECA5
:10196E0006F02151050A21E1696BCBEC04F022C18E
:10197E0046F1000E476F486B496B800E4A6F000EA2
:10198E004B6F400E4C6F000E4D6F800E4E6F000E63
:10199E004F6F400E506F000E516F010E526F3E0E84
:1019AE00536F000E546F75EC06F02151060A21E1BB
:1019BE00696BCBEC04F022C146F1000E476F486B09
:1019CE00496B800E4A6F000E4B6F400E4C6F000E2F
:1019DE004D6F800E4E6F000E4F6F400E506F000E0B
:1019EE00516F010E526F260E536F000E546F75EC31
:1019FE0006F02151070A21E1696BCBEC04F022C1FC
:101A0E0046F1000E476F486B496B800E4A6F000E11
:101A1E004B6F400E4C6F000E4D6F800E4E6F000ED2
:101A2E004F6F400E506F000E516F010E526F220E0F
:101A3E00536F000E546F75EC06F02151080A21E128
:101A4E00696BCBEC04F022C146F1000E476F486B78
:101A5E00496B800E4A6F000E4B6F400E4C6F000E9E
:101A6E004D6F800E4E6F000E4F6F400E506F000E7A
:101A7E00516F010E526F2E0E536F000E546F75EC98
:101A8E0006F02151090A21E1696BCBEC04F022C169
:101A9E0046F1000E476F486B496B800E4A6F000E81
:101AAE004B6F400E4C6F000E4D6F800E4E6F000E42
:101ABE004F6F400E506F000E516F010E526F2A0E77
:101ACE00536F000E546F75EC06F02151010A05E1BB
:101ADE00696BCBEC04F0B9EC05F0020E0B6E040E44
:101AEE000C6EBA0E0D6E0D2EFED70C2EFCD70B2ED5
:101AFE00FAD70000F9EC04F022C11FF12251780A46
:101B0E00D8B4226B20A101D003D0020E2227B8D662
:021B1E001200B3
:101B200085EC23F00F01396B3B6B396B3B6B010E7E
:101B300001011E6F2091F18CF292F288F18AF090EF
:101B4000F086F188F092F088F28E2FDC00DC696B71
:101B5000CBEC04F0216BAF0E696F000E6A6F6B6BFC
:101B60006C6B6D6B6E6B77EC05F0C00E696F000EE1
:101B70006A6F6B6B6C6B0A0E6D6F000E6E6F77EC9D
:101B800005F0970E696F000E6A6F6B6B6C6B1E0E23
:101B90006D6F000E6E6F77EC05F06C0E696F000EC6
:101BA0006A6F6B6B6C6B280E6D6F000E6E6F77EC4F
:101BB00005F00B0E0B6E260E0C6E5D0E0D6E0D2ECF
:101BC000FED70C2EFCD70B2EFAD700000000696B55
:101BD000CBEC04F0860E696F000E6A6F6B6B6C6B5A
:101BE0006D6B6E6B77EC05F0D50E696F000E6A6F4A
:101BF0006B6B6C6B0A0E6D6F000E6E6F77EC05F001
:101C0000E70E696F000E6A6F6B6B6C6B140E6D6F75
:101C1000000E6E6F77EC05F0F90E696F000E6A6FBB
:101C20006B6B6C6B1E0E6D6F000E6E6F77EC05F0BC
:101C30001E51010A01E12BDE1E51020A02E1EAEC0B
:0E1C400009F01E51030A01E10BDDF2D7FFD7B8
:10470A0010EE15F0080E006E020E016E010EF66E26
:0E471A00460EF76E000EF86EE2EC09F012008B
:101C4E00000020007F000B000188010001930100BD
:101C5E00039E010007A9010005B4010009BF0100A0
:101C6E0006D5010001E0010003EB010002F60100C0
:101C7E0005010200060C02000217020002220200F9
:101C8E00022D02000338020004430200044E02003B
:101C9E000459020004640200056F0200047A020077
:101CAE000485020004900200049B020004A60200B8
:101CBE0002B1020002BC020006C7020006D20200F8
:101CCE0006DD020004E8020007F3020006FE020031
:101CDE000509030006140300061F0300052A03006E
:101CEE000535030006400300064B030003560300B0
:101CFE0003610300056C03000477030007820300F1
:101D0E00068D03000798030005A3030007AE03002A
:101D1E0005B9030005C4030005CF030006DA03006E
:101D2E0006E5030007F0030004FB030005060400AC
:101D3E0004110400021C04000327040002320400F4
:101D4E00053D04000548040003530400045E04002E
:101D5E000469040003740400047F0400048A040070
:101D6E000395040004A0040004AB040001B60400B3
:101D7E0002C1040004CC040001D7040007E20400F1
:101D8E0004ED040004F8040004030500040E05002D
:101D9E000319050003240500022F0500043A05006F
:101DAE000545050007500500035B050005660500A7
:101DBE0003710500037C05000287050003920500F0
:101DCE00069D050002A805000000000000000000AE
:101DDE0000000000000101010101000100000005EA
:101DEE00050500000000000000000024247E143FC2
:101DFE00121200000000041E05060C140F0404004D
:101E0E00000000460029002900D60028012801C440
:101E1E00000000000000000609091609192600003E
:101E2E000001010100000000000000000402010199
:101E3E00010101010204000001020202020202017C
:101E4E000004150E1504000000000000000000083C
:101E5E00083E08080000000000000000000002021A
:101E6E000100000000000000030000000000000060
:101E7E00000000000202000000040402020202023E
:101E8E000101000000060909090909060000000009
:101E9E000406040404040E000000000708080402EF
:101EAE00010F0000000007080806080807000000E0
:101EBE0000080C0A091F0808000000000F010107A6
:101ECE0008080700000000060101070909060000C6
:101EDE0000000F08040402020100000000060909B8
:101EEE0006090906000000000609090E080806008A
:101EFE0000000000000202000202000000000000CC
:101F0E000202000202010000000000201C021C2040
:101F1E00000000000000003F003F00000000000035
:101F2E0000021C201C02000000000708080402002A
:101F3E0002000000001C2259555539021C000000F9
:101F4E000C0C12123F2121000000000709090F118D
:101F5E00110F000000001C22010101221C000000D4
:101F6E00000F11212121110F000000001F01010F90
:101F7E0001011F000000001F01010F0101010000FF
:101F8E0000001C22013921223C00000000212121E9
:101F9E003F21212100000000070202020202070079
:101FAE0000000006040404040403000000001109EC
:101FBE000503050911000000000101010101010FD7
:101FCE00000000006363555549494100000000219F
:101FDE00232529312121000000001C2241414122EC
:101FEE001C000000000F1111110F01010000000074
:101FFE001C22414141221C106000000F11110F05DF
:10200E000911000000001E01010E10100F0000004B
:10201E00001F0404040404040000000021212121F7
:10202E0021211E0000000021212112120C0C0000A3
:10203E0000004949555555222200000000090906A5
:10204E000606090900000000110A0A04040404002F
:10205E000000000F08040202010F0000000301013E
:10206E000101010101010300010102020202020449
:10207E000400000302020202020202020300000434
:10208E000A11000000000000000000000000000027
:10209E0000001F000204000000000000000000000D
:1020AE00000006080E090E000000010101070909D3
:1020BE0009070000000000000601010106000000F3
:1020CE000808080E0909090E0000000000000609A4
:1020DE000F010E00000006010107010101010000C1
:1020EE00000000000E0909090E0806000101010793
:1020FE0009090909000000000100010101010100A8
:10210E0000000002000302020202020100010101AE
:10211E00090503050900000001010101010101018A
:10212E000000000000003749494949000000000046
:10213E000007090909090000000000000609090945
:10214E000600000000000007090909070101000050
:10215E0000000E0909090E08080000000005030121
:10216E00010100000000000007010204070000004A
:10217E000000010301010102000000000000090936
:10218E0009090E000000000000110A0A0A040000EE
:10219E0000000000494955362200000000000005ED
:1021AE0002020205000000000000110A0A0A0404DF
:1021BE0002000000000704020107000000040202F2
:1021CE0002020102020204000202020202020202E2
:1021DE0002020001020202020402020201000000D9
:1021EE000000261900000000000000030303030393
:0321FE00000000DE
:1022010000000000000000000000000000000000CD
:1022110000000000000000008080404000202000FD
:102221001010100008080800040404040000020251
:10223100020202000000000081C1E1F1F9FDFEFF90
:10224100FFFCFDF9F1E1C181000000000002020282
:102251000202000004040404000808080010101021
:1022610000202000404080800000000000000000AD
:10227100000000000000000000000000000000005D
:10228100000000000000000000008040402010100D
:1022910008040402020101000000000000000080A7
:1022A10080C0404020202010101008080808048435
:1022B100C4E4F4F4FAFEFEFFFFFFFFFFFFFFFFFFA0
:1022C100FFFFFFFFFFFFFFFFFFFEFEFAF4E4C4C4C0
:1022D100840C08080808101010202020404080803D
:1022E10000000000000000000001000202040008DC
:1022F100101020404080000000000000000000009D
:1023010000000080601008040201000000000000CD
:10231100000000000080402010080C0402030101AD
:102321000000000000000080C0E0F0F8FCFEFFFFAC
:10233100FFFFFFFFFFFFFFFFFFFFFFFFFF7F3F3FAC
:102341003F3F7FFFFFFFFFFFFFFFFFFFFFFFFFFF9C
:10235100FFFFFEFCF8F0E0C080000000000000007C
:1023610001010202040C181020408000000000004E
:10237100000000000000010204081060800000005D
:1023810000F807000000000000000000000000004D
:102391000080F80E0300000000000000000080C073
:1023A100E0F0F8FCFCFEFFFFFFFFFFFFFFFFFFFF78
:1023B100FFFFFFFFFFCF0F1F1F1F3F3938787870D6
:1023C100F0F0E0E0E1C1C1C18183FFFFFFFFFFFF4A
:1023D100FFFFFFFFFFFFFFFFFFFFFEFCFCF8F0E048
:1023E100C080000000000000000001031CF000009C
:1023F1000000000000000000000000000106F800DD
:10240100003FE000000000000000000000000000AC
:1024110000011F70C080C0E0F0F8FCFEFEFFFF7FEE
:102421007F7F7F3F3F3F3F1F1F1F1F1F0F0F0F0F5B
:102431000F8F8FCF4F4F3E3C3C7C7CFCF8F0E0C0CF
:10244100E0E0F0F8FF7F7F3F3F2F474F8F8F0F0F67
:102451000F0F0F1F1F1F1F1F3F3F3F3F3F7F7F7FFB
:10246100FFFFFFFEFCFCF8F0E0C080C0781F000019
:1024710000000000000000000000000080E01F00DC
:1024810000000003060830604080808040603030EA
:10249100181C0E0F0707070F0B11216140808000E8
:1024A1000000000000000000000000000070FC06B9
:1024B100030130000208081080C2008840518103E6
:1024C10083C9811082C0C08800120004000001038A
:1024D10006FC2000000000000000000000000000D9
:1024E1008080C0412131130B070707070E0E1C180E
:1024F100302060C0800080402010080601000000EC
:1025010000000000000000000000010204040810A7
:10251100102020404080A0201010786828341C8DA5
:10252100C1C2623234040C080888D0D09010212333
:10253100A42C2838506860606153404D434351508A
:10254100414543404B4B436F6060505038282C2627
:10255100A3A190909090880868E4E4A46262CB897A
:102561009D34347C58501030208080404020201011
:102571000008040402010000000000000000000047
:10258100000000000000000000000000000000004A
:10259100000000000000000001000202000405012B
:1025A100090A0A0010141603232D2E270100585E74
:1025B1004F435F181E0F01008083BFBC8E86808051
:1025C100B0BE9E939EBCB08002031715155D58489E
:1025D1004043070E2E2B212000101111030A0A0976
:1025E10001040400020201010000000000000000DB
:1025F10000000000000000000000000000000000DA
:1026010000000000000000000000000000000000C9
:1026110000000000000000000000000000000000B9
:1026210000000000000000000000000000000000A9
:102631000000000000000000000000000000000099
:102641000002000000400000000000000000000047
:102651000000000000000000000000000000000079
:102661000000000000000000000000000000000069
:102671000000000000000000000000000000000059
:102681000000000000000000000000000000000049
:1026910000000000F8F8F8FCFCFCFCFCFEFEFEFE6D
:1026A100FEFEFEFEFEFFFFFFFFFFFFFFFFFFFFFF3E
:1026B100FFFFFFFFFEFEFEFE7EBE1E5E5C4C0C0CAD
:1026C1000C0C18E8080818F0103070E0E0E0E0E0C9
:1026D100C0C0C0C0C08080808080808080808080B9
:1026E10080808080808080C0C0C0C0E00000000089
:1026F10000000000000000000000000000000000D9
:1027010000000000000000000000000000000000C8
:10271100000000007F7F7F7F3F3F3F3F3F3F1F1F04
:102721001F1F1F1F1F1F1F1F1F1F1F1F1F1F1F1FB8
:102731001F1F1F1F1F1F1F1F1C183A3232346461D5
:10274100696BE3F1F4F4F6F1F8F8FCFFFFFFFFFF2A
:10275100FFFFFFFFFFFFFFFFFFFFFFFFFFFFFFFF88
:10276100FFFFFFFFFFFFFFFFFFFFFFFF0000000074
:102771000000000000000000000000000000000058
:102781000000000000000000000000000000000048
:102791000000000000008080C0C0C0E0E0E0E0F088
:1027A100F0F0F0F0F8F8F8F8F8F8F8F878787878C8
:1027B1007838383838383838301010101010000098
:1027C1000080000000010101030303070707078FD1
:1027D1008F8F8F8F8F8F9F9F9F9F9F9F9F9F8F8F88
:1027E1008F8FCFCFCFCFC7C7E7E7E3E3000000006C
:1027F10000000000000000000000000000000000D8
:1028010000000000000000000000000000000000C7
:1028110000000000FFFFFFFFFFFFFF7F3F1F1F0FB3
:102821000F070703030101010000000080C0C0E0A1
:10283100F0F0F8F8F8FCFCFCFEFEFEFEFFFFFFE303
:10284100C18080000000000000181C3C3C3C3C7C26
:102851007C7D7D7F7FFFFFFFFFFFFFFFFFFFFFFF0E
:10286100FFFFFFFFFFFFFFFFFFFFFFFF0000000073
:102871000000000000000000000000000000000057
:102881000000000000000000000000000000000047
:1028910000000000FFFFFFFF8701000000000000B3
:1028A10000000000000000000000001E7F7FFFFF0D
:1028B100FFFFFFFFFFFFFFFFFFFFFFFFFFFFFFFF27
:1028C100FFFFFFFFFFFFFEFEFEFEFEFCFCFCFCF82F
:1028D100F8F8F0E00000000000000101010103032D
:1028E10007070F0F1FFFFFFFFFFFFF3F0000000063
:1028F10000000000000000000000000000000000D7
:1029010000000000000000000000000000000000C6
:102911000000000000070F3F7F7CF8F0E0C0C0809E
:1029210000000000000000000000000000000001A5
:10293100010303070707070F0F0F0F0F1F1F1F1FAC
:102941001F1F1F1F1F1F1F1F1F1F0F0F0F0F0F07FE
:102951000703030100000000000000000000000068
:1029610080C0C0E0F8FF7F3F1F07010000000000AA
:102971000000000000000000000000000000000056
:102981000000000000000000000000000000000046
:102991000000000000000000000000010103030727
:1029A100070F0E0E1E1C1C1C38383830307070702A
:1029B100606060606060606060404040C0C0C0C0F6
:1029C100C0C0C0C040404040606060606060606006
:1029D1006030303030383818181C1C0C0E0E0707C8
:1029E10003030101000000000000000000000000DE
:1029F10000000000000000000000000000000000D6
:102A010000000000000000000000000000000000C5
:102A110080808080808080C0C000808080808080B5
:102A21008080808080808080808080C0C080C0C0A5
:102A3100C080808080808080808080808080808055
:102A41008080808080808080808080808080808085
:102A51008080808080808080808080808080808075
:102A610080808080808040C0C080808080808000A5
:102A71000000000000000000000000000000000055
:102A81000000F8F8FCDC1C0CFCFCFC04FEFFFFFF62
:102A9100C3C3D5C1E3FFFF00FF007F7F7F434359DD
:102AA1005D7D7D7D4D4D4F7F674343597D7D7D5DCF
:102AB1004143637F5D5D4D45657171797D7F7D7DAD
:102AC1007D4141417D7D7D7F4141417575757575C3
:102AD1007F7F4141416D6D6571737B7F41414175DF
:102AE100757575757F4000FF00FFFFFFEDC9C5D10A
:102AF100F3FFFFFE04FCFC7C0C9CBC58F8F80000C2
:102B010000000F0F0F0F0E0E0F0F0F0E0505030222
:102B11000206040404050D08FF00EFEFE9E9E9E905
:102B2100E9EFEF00EF2F0F2F2F2F0FEF00EFEFE95E
:102B3100E9E9E9E9EFEF00EF2F0FAFAFAF8FEF80DA
:102B4100FFFF0181818181810101010101010101F8
:102B51000101010101010101010101010101010164
:102B610001010101FF0000FF080D04040404060235
:102B7100020305070E0F0F0F0E0E0E0C0F0F0000B4
:102B81000000000000000000000000000000000044
:102B91000000000000000000FF00DDFFE3E3E3E3CD
:102BA100E3FFFF00FF7F7F7F7F7F7FFF00DDFF531C
:102BB1004B4F4767633B3E2721E1F0D88C8486C2A7
:102BC10063311118080486C2C3E32131333A6E4CD4
:102BD1004CC89890E0C00000000000000000000018
:102BE10000000000FF0000FF0000000000000000E6
:102BF10000000000000000000000000000000000D4
:102C010000000000000000000000000000000000C3
:102C110000000000000000001FF08B7BCF0B0B0BAE
:102C21000B0F0B080F0E0C0E0E0E0C0B0F1F384C5A
:102C310044C6C262232131111111D8DC7C363F3BDD
:102C4100EFFFE63F273F34FCF49C1933226644CC66
:102C51008898D0F1F9FFFAFCFEFEFEFEFEFEFEFEB4
:102C6100FEFEFEFC7B80781F0000000000000000DB
:102C71000000000000000000000000000000000053
:102C81000000000000000000000000000000000043
:102C91000000000000000000000001020D0B162CD6
:102CA1005870A0404080800000000000000000003B
:102CB100000101020206040404070F080808F808CD
:102CC100EFFFFCF8F8F8F8F8FDFFFFFEFEFEFEFF4F
:102CD100FFFFFFFFFFFFFFFFFFFFFF7F7FBF5F5F83
:102CE1002F170B040201000000000000000000008B
:102CF10000000000000000000000000000000000D3
:102D010000000000000000000000000000000000C2
:102D110000000000000000000000000000000000B2
:102D21000000000101020305070A0E0C1418083007
:102D31003050606020C0C040C08080800000FF0033
:102D4100FFFFFFFFFFFFFF7F7FFFBF3F7F7F5F3FF2
:102D51002F0F1F17070B0B070502020101000000CF
:102D61000000000000000000000000000000000062
:102D71000000000000000000000000000000000052
:102D81000000000000000000000000000000000042
:102D91000000000000000000000000000000000032
:102DA1000000000000000000000000000000000022
:102DB1000000000000000000010101000303010404
:102DC10001030302000101010000000000000000F6
:102DD10000000000000000000000000000000000F2
:102DE10000000000000000000000000000000000E2
:102DF10000000000000000000000000000000000D2
:102E0100000080F0FC3E0E06E4ECC8C8D8D89090D3
:102E1100B0A020202060404040404040C0C0C0C021
:102E2100C080808080C0C0C0C04040404040406001
:102E3100602020A0B0909090D8C8C8ECE4E4F6F2ED
:102E4100F2E6E4ECCCC8C8D89090B0B02020206065
:102E510060404040404040C0C0C0C0C0C0C0C0C0D1
:102E6100C0C0C040404040404060602020A0B090C1
:102E71009090D8C8C8ECE4E4C6020E3CF8E08000AB
:102E810080FCFF0F0000F8FFFFFFFFFFFF0F0FEFB8
:102E9100EFEF4F1F1FFFFFFF0E0EAEAEAEAEAEFE49
:102EA100FEFE0E0E0E9E3E7E0E0EFEFEFE0F070F66
:102EB100FFFFEF6F6F2F8F8FCFEFFFFFFF0F0FFF21
:102EC100FFFFFFFFFFFF0F07FFFFFFFF1F8FAFAFE9
:102ED100AF0F5EFEFEFE0E0E2EAEAE8E9EFEFEFE0F
:102EE100BE1E4EEEEEEECE1F1FFFFFFF1F0F0FAFF8
:102EF100AFAF0F5FFFFFFFFFFFFFC00003FFFFF05A
:102F01003FFFFF00001FFFFFFFFFFFFFFFFEFEFE71
:102F1100FEFEFEFEFFFFFFFFFEFEFEFEFEFEFEFFCB
:102F2100FFFFFEFEFEFFFFFEFEFEFFFFFFFEFEBEF9
:102F31009F1F1E060606060206060F0F0F1E1E7EA7
:102F4100FEFEFEFFFFFFFEFEFFFFFFFFFEFEFEFE99
:102F5100FEFEFFFFFFFFFEFEFFFFFFFFFFFFFFFF84
:102F6100FFFFFEFEFEFEFEFEFFFFFFFFFEFEFEFF79
:102F7100FFFFFEFEFFFFFFFFFFFF070080FFFF0FC8
:102F810000073FFEF0C0031F7FFFFFFFFFFFFFFFB2
:102F9100FFFFFFFFFFFFFFFFFFFFFFFFFFFFFFFF40
:102FA100FFFFFFFFFFFFFFFFFFFF7F3F190800004B
:102FB10000000000000000000000001F3F7F7FFFB5
:102FC100FFFFFFFFFFFFFFFFFF7F3F3F1F0F0F0FC0
:102FD10007070707030303030303030707070F0F8C
:102FE1001F7FFFFFFFFFFFFFFFFFFFFFFFFFFFFF50
:102FF100FFFFFFFFFFFF7F1F0780E0F83F0F01008A
:103001000000000001070F1C3871C3870F1F3F7FAD
:10301100FFFFFFFFFFFFFFFFFFFFFFFFFFFFFFFFBF
:10302100FFFFFFFFFFFFFFFFFFFFFEFCF8F8F0F0DF
:10303100E0E0E0C0C08000000000000000000000EF
:1030410000010101010101010080808080800000F8
:103051000000000000F0E00000000080ECF880803B
:10306100E0F0FFFFFFFFFFFFFFFFFFFFFFFFFFFF9D
:103071007F3F1F8FC3E1703C1E070300000000006B
:1030810000000000000000000000000103060E1C0B
:1030910018316367CF8F9F3F3F7F7FFFFFFFFFFFA8
:1030A100FFFFFFFFFFFFFFFFFFFFFFFFFFFFFFFF2F
:1030B100FF7F7F7F7F3F0F00C0E0E0F0F8FCFCFC6A
:1030C100FCF8F8F0F0606003071FDFDFFFFFFFFE91
:1030D100F8FCFCFEFFFFFFFCFEFEFFFFFFFFFFFF12
:1030E100FFFFFFFFFF7F7F3F3F9F8FC76773311850
:1030F1000C0E0703010000000000000000000000AA
:1031010000000000000000000000000000000000BE
:1031110000000000000001030306060C0C1919331E
:103121003327674FCFDF9F9F3F3F7F7F7FFFFEFEAC
:10313100FEFEFE86868EFEFEFFFFCF8787C7EFFF6E
:10314100FFFE8E8E869EFEFFFFFF8E87879FFFFF0D
:10315100FFFFFF7F7F7F3F3FBF9F9FCF4F6F67275E
:10316100331319090C0406030301010000000000D8
:10317100000000000000000000000000000000004E
:10318100000000000000000000000000000000003E
:10319100000000000000000000000000000000002E
:1031A1000000000000000001010103020206040406
:1031B1000D0D09091B131313372727276F6F4F4F66
:1031C1004F4F4F6F6F2727373713131B1B09090DFC
:1031D1000C040606020203010101000000000000C8
:1031E10000000000000000000000000000000000DE
:1031F10000000000000000000000000000000000CE
:10320100000000000000000000000000008080C0FD
:10321100C0E0F0F0F8FCFE0202008484848480881F
:10322100888888888888880000000008F8F8F8F8FD
:10323100F8F8F8F8F8F8F8F8FCFC7C7C7C7C7C7CED
:103241007C7C7C7C7C7C7CFCFCFCFCFCF8F8F8F84D
:10325100F8F8F8F8088888888888888808080808AD
:103261008880808484040002FEFCF8F8F0E0E0C06D
:10327100C08080000000000000000000000000008D
:10328100000008081C3C7CFCFEFEFFFFFFFFFFFF67
:10329100FFFFFFFFFFFFFF000000FFFFFFFFFFFF3A
:1032A100101010181FFFEFEFE7E6C000FFFFFFFF50
:1032B100FFFFFFFF7F7F7F7F7F7FFFFFFFFFFFFF1D
:1032C100FF0000000000FFFFFFFFFFFFFFFFFFFF08
:1032D100FFFFFFFF0000FFFFFFFFFF18181C147224
:1032E100F3F1E1C080000000FFFFFFFFFFFFFFFFE0
:1032F100FFFFFFFFFFFEFEFE7C3C1C1808000000E4
:1033010000000000000000000183FFFFFFFFFFFF3E
:10331100FFFFFFFFFFFFFF000000030303030303A1
:103321000202020202030303030101003FBF9FDF08
:10333100DF9F9FBFBEBEBCBD9D9F9B9B9B9B9B9BDD
:103341009D9C9C9C9C9CBFBFBFBFBFBFBF9F9FDF7D
:10335100DF9F9F3F000203030303030200000000FD
:103361000003030303020000FFFFFFFFFFFFFFFF56
:10337100FFFFFFFFFFCF83000000000000000000FF
:1033810000000000C0F0F8FCFEFFFFFFFFFFFFFFA1
:10339100FFFFFFFFFFFFFF00000000000000000033
:1033A1000000000000000000868EEEFFFFFFFFFF1F
:1033B1007F3F1FDFDFFFFFFFFFF7F7F6F0F1E1C10E
:1033C100C1F1F1F4F7F7F7FFFFFFFFDF9F3F3F7F09
:1033D100FFFFFFFFFFEEC6820000000000000000BB
:1033E1000000000000000000FFFFFFFFFFFFFFFFE4
:1033F100FFFFFFFFFFFFFFFEFCF8E0C00000000041
:103401000000FCFFFFFFFFFFFFFFFFFFFFFFFFFFCC
:10341100FFFFFFFFFFFFFF000000000000000000B2
:10342100000000000000001F3F7F7F7FFFFFFFF0D3
:10343100E0C0C08183830707070F0F0F0F0F0F0F26
:103441000F0F0F0F0F0F0F070707838380C0E0E0F7
:10345100F0FFFFFF7F7F3F3F1E00000000000000E4
:103461000000000000000000FFFFFFFFFFFFFFFF63
:10347100FFFFFFFFFFFFFFFFFFFFFFFFFFFC00005C
:10348100000000030F1F3F7F7FFFFFFFFFFFFFFFD4
:10349100FFFFFFFFFFFFFF000000000000000080B2
:1034A10080808080C0C0C00000000000FEFEFC7C67
:1034B1007D3D3D3DB9BBBBBB3333377666EEEECECA
:1034C100CEEE6666773733B3BBBBBB39397D7DFD45
:1034D100FCFCFEFE000080C0C0C0C0404040C0C037
:1034E100C0C0800000000000FFFFFFFFFFFFFFFFE3
:1034F100FFFFFFFFFFFFFF7F3F3F1F0F070100009F
:1035010000000000000000000000000101030303AF
:103511000707070F0F0F0F10101020202020004069
:1035210040505F1F9F9F9F9010000000FFFFFFFE14
:10353100F4E4E4E4E5EDFDEDE4E0E0F0F0F9FFFFB3
:10354100FFF8F0F0E0E0E7EFFFFFEFE6E0E0F0F09A
:10355100F9FFFFFF0008191D1D999A829212575F0A
:103561005F1D2D20202000101F1F0F0F0F070707C1
:103571000303010101000000000000000000000041
:10358100000000000000000000000000000000003A
:10359100000000000000000000000000000000002A
:1035A100000000000000000000010101010103030F
:1035B10003030707070F0F0F1F1F1F3F3F3F7F7FAA
:1035C1007F7F3F3F1F1F1F0F0F0F0F0707070703C6
:1035D10003030301010101010000000000000000DC
:1035E10000000000000000000000000000000000DA
:1035F10000000000000000000000000000000000CA
:1036010000000000000000000000000000000000B9
:10361100000000000000008080C0404020202010F9
:10362100101010888848480404044404000232F24F
:103631009252524240410101010101010101010186
:1036410081912929290949D9D10101C062721292B6
:1036510092928260040484844448484808909010FF
:10366100102020204040C0808000000000000000A9
:103671000000000000000000000000000000000049
:1036810000000000000000000080C0406030101801
:1036910008044442C241414088889090B0E0490A00
:1036A100060408091306848088C8C8CCD6E3E0E084
:1036B100E3F2F2F2F0F0F1F9F8F8F8F8F8F8F8F8C6
:1036C100F8F8F9F9F9F9F9F9F8F0F1F1F0F0F0E0B9
:1036D100E0E0E0E0C6C7C888888808080824271108
:1036E10018081C94E2642428381101020204040819
:1036F1001810306040C08000000000000000000091
:10370100000080C070180C060381809088A424A456
:103711003448484040391207050080C0E0F0F8F80D
:10372100FCFCFEFEFFFFFFFFFFFFFFFFFFFFFFFFB0
:10373100FFFFFFFFFFFFFFFFFFFFFFFFFFFFFFFF98
:10374100FFFFFFFFFFFFFFFFFFFFFFFFFFFFFFFF88
:10375100FFFFFFFFFFFFFFFFFFFFFFFFFEFEFCFC80
:10376100F8F8F0E0C080000000080808446C3C183C
:103771008A82809090900103060C1870C08000002E
:10378100E0FE07010000E006050404E0040B09085F
:10379100E80001000000E0F8FEFFFFFFFFF8C000B5
:1037A1000000000000000000000000000000000018
:1037B100000000000000000000000080F0F0F8FCB4
:1037C100FEFEFCF8F0A00000000000000000000078
:1037D10000000000000000000000000000000000E8
:1037E10000C0F0FEFFFFFFFEF8E00000000605E963
:1037F1002828282820200404040000000107FEF0E6
:10380100077FE0800000014545656555554D4D0533
:10381100052080000000071F7FFFFFFFFFFFFFFF64
:10382100FEFCFCFCFCFCFCFCFCFCFCFCFEFEFEFECD
:10383100FCFCFCFCFCFCFCFCFCFCFCFDFFFFFFFFBA
:10384100FFFFFFFFFFFFFCFCFCFCFCFCFCFCFCFCA5
:10385100FCFCFEFEFEFCFCFCFCFCFCFCFCFCFCFE9F
:10386100FFFFFFFFFFFFFF7F1F0700000080485C95
:103871005202A2A2A2A2A2222202001880E07F0785
:10388100000001030E183060C0860C180049CA8C74
:10389100082024C78680404040000103070F1F1FF6
:1038A1003F3F7F7FFFFFFFFFFFFFFFFFFFFFFFFFA7
:1038B100FFFFFFFFFFFFFFFFFFFFFFFFFFFFFFFF17
:1038C100FFFFFFFFFFFFFFFFFFFFFFFFFFFFFFFF07
:1038D100FFFFFFFFFFFFFFFFFFFFFFFF7F7F3F3F77
:1038E1001F1F0F0703010020704888888B0B1414D9
:1038F10014222524840482C16030180E03010000C3
:10390100000000000000000000010302060C08187E
:103911001121214040808000000000000000202093
:103921002838F0703828210101030303070707072E
:10393100078FCF4F0F0F0F0F9F9F9F9F1F1F1F1F9E
:103941001F1F1F9F9F1F1F1F8F8F8F0F4F4FCF074E
:1039510007070707030303010121203870F03038FE
:10396100282000000000000000808040402121113B
:1039710018080D060203010000000000000000000D
:103981000000000000000000000000000000000036
:103991000000000000000001010302020404040809
:1039A100080808101010102020202020004040445A
:1039B100464140400080889B959494948F878080F5
:1039C1008E8D909090918F8480808000404F4040F8
:1039D100404040002020202020101010100808082E
:1039E10008040404020203010100000000000000B9
:1039F10000000000000000000000000000000000C6
:103A010000000000000000000000000000000000B5
:103A110000000000000000000000000000000000A5
:103A21000000000000000000000000000000000095
:103A31000000000000000000000000000000000085
:103A41000000000000000000000000000000000075
:103A51000000000000000000000000000000000065
:103A61000000000000000000000000000000000055
:103A71000000000000000000000000000000000045
:103A81000000000000000000000000000000000035
:103A91000000000000000000000000000000000025
:103AA1000000000000000000000000000000000015
:103AB1000000000000000000000000000000000005
:103AC10000000000000000000000000000000000F5
:103AD10000000000000000000000000000000000E5
:103AE10000000000000000000000000000000000D5
:103AF10000000000000000000000000000000000C5
:103B010000000000000000000000000000000000B4
:103B110000000000000000000000000000000000A4
:103B21000000000000000000000000000000000094
:103B31008080000000000000000000004040404084
:103B410040C0C0C0C0C0C0C0C080808080808080B4
:103B510080000000000000000000000000000000E4
:103B61000000000000000000000000000000000054
:103B71000000000000000000000000000000000044
:103B81000000000000000000000000000000000034
:103B9100000000000000000000000080C0C0E0E064
:103BA100F0F0F8F8FC7C7C3E3E1E1E0F0F0F07075D
:103BB10007070703030302020200000000000000E0
:103BC10000000000010101010303030303030707D0
:103BD10007070F0F0F1F1E0E0E0C0404000000003C
:103BE10000000000000000000000000000000000D4
:103BF10000000000000000000000000000000000C4
:103C010000000000000000000000000000000000B3
:103C1100000000000000000070FEFFFFFFFFFFFF3B
:103C2100FF8F030100000000000000000000000001
:103C3100000004041C0000000C1C00001C18001CE7
:103C41001C00001C1800101C0400181800000000C3
:103C5100000000001C1C3C1C1C1C1C1C1C1C1CFC13
:103C6100FCFCFCFCFCFCFCFC000000000000000073
:103C71000000000000000000000000000000000043
:103C81000000000000000000000000000000000033
:103C91000000000000000000000103070F1F1F3F8C
:103CA1007F7F7EFCF8F8F0E0E0E0C0C0808080809B
:103CB1000000000000000000000000000000000003
:103CC10000000000000000000000000000000000F3
:103CD10000808080C0C0C0E0E0F0F0F8FCFE7F7F93
:103CE1003F3F1F1F0F0703000000000000000000FE
:103CF10000000000000000000000000000000000C3
:103D010000000000000000000000000000000000B2
:103D110000000000000000000000000000000000A2
:103D2100000000000001010101030303030707076D
:103D310007070F0F0F0E0E0E0E0E0E0E0E0E0E0EAD
:103D41000E0E0E0E0E0E0E0E0E0E0E0F0F0F07079D
:103D51000707070703030303010101000000000037
:103D61000000000000000000000000000000000052
:103D71000000000000000000000000000000000042
:103D81000000000000000000000000000000000032
:103D91000000000000000000000000000000000022
:103DA1000000000000000000000000000000000012
:103DB1000000000000000000000000000000000002
:103DC10000000000000000000000000000000000F2
:103DD10000000000000000000000000000000000E2
:103DE10000000000000000000000000000000000D2
:103DF10000000000000000000000000000000000C2
:103E01000000000000000000008080808080C04031
:103E1100404060606060607070F0F0F8F8F8F8F8A9
:103E2100FCFCFCFCFEFEFEFEFEFFFFFEFEFCFCF8C1
:103E3100F8F8F0F0F0E0E0E0E0C0C0C0C0C0C0C001
:103E410080808080808080C04040404000202020D1
:103E510000101010080880848402424040C0800095
:103E61000000000000000000000000000000000051
:103E71000000000000000000000000000000000041
:103E8100F0FEFEFEFEFFFFFFFFC783010000183CAE
:103E91003E7E7F7FFFFFFFFFFFFF7F7F7F7AB8F9C5
:103EA100F1F8F9FBFFFF7F7F7F7F3F3F3F3F1F1F00
:103EB1001F1F1F0F0F0F0F07070707C3C3A3A3A3DD
:103EC100A1A181913068C8C8A8381810000C1E1231
:103ED10020202022121E1C010306060D01010302EF
:103EE100022220307030300000000000000000008D
:103EF100808080C0C0C0C0E0E0E0E0F0F0F0F87881
:103F010003FFFFFF7F7F7F7F3F3F3F3F1F1E1E1E3F
:103F11001C0C0C0C0C84840404024242C3812161F8
:103F2100F1D1D05050707000888C042000404808B6
:103F3100383000031F1D01050602040404020202B9
:103F410002020201010000000000000000808087E1
:103F51008EC6C6C5C0E0E0E0E0F0F0F0F0F8F8F899
:103F61000000000000000000000000000000000050
:103F7100FFFFFFFFFFFFFFFFFFFFFFFFFFFF1F002F
:103F8100000002082040000000000000060E1A3860
:103F910021251616DC8881838604040404070302A4
:103FA10000000101000000080C1C0C8C888080C0FE
:103FB100C0C0C0E0E0E0E0F0F0F0F0F0F8F80000A0
:103FC1000000000000000000000000000000FFFFF2
:103FD100FFFF3F1F0F6F2F2F4F4FDFFFFFFFFFFF30
:103FE1000000000020636341494D7F7F32000000E3
:103FF100FFFFFFFFFFFFFFFFFF7F3F0F03000000F9
:1040010000000000000001020408100040C0C0C010
:10401100C0E0E0E1E0F3F3F1F1F1F8F800000000B5
:104021000000000000000000000000FFFFFFFF9FF4
:104031009FDFCF0707FFFFFFFFFFFFFFFFFF00002D
:1040410000066F6F4951496F7F3E00000000FFFF7E
:10405100FFFFFCF8F8F3F3F3F0F8FCFFFFFFFFFFBD
:10406100000000000000000000000000000000004F
:10407100FFFF7F3F1F0F070301000000000000004A
:10408100000000000000000000000000000001032B
:1040910007070F1F3F3F7FFFFFFFFFFF00000000EB
:1040A1000000000000000000000000FFFFFFFFFF14
:1040B100FFFFFFF8F8FFFFFFFFFFFFFFFF1F0000FB
:1040C1000000000000000000000000000000FFFFF1
:1040D100FFFFFFFFFFFFFFFFFFFFFFFFFFFFFFFFEF
:1040E10000000000000080004020201000000402B9
:1040F10001000000000000000000000000000000BE
:1041010000000000000000000000000000000000AE
:10411100000000000000000000010103040008008D
:104121001000200040008000000000FFFFFFFFFFA3
:10413100FFFFFFFFFFFFFFFFFFFFFFFFFF0000008B
:1041410000000000000000000000000000FFFFFF71
:10415100FFFFFFFFFFFFFF7F7F7F3F3F1F1F0F0F0E
:104161000004000200010000000000000000000047
:10417100000000000000000000000000000000003E
:10418100000000000000000000000000000000002E
:10419100000000000000000000000000000000001E
:1041A1000000000000000000000002030307070FE9
:1041B1000F0F1F1F1F3F3F3F3F7F7F7FFF0000000B
:1041C10000000000000000000000000000070703DD
:1041D10003030101010000000000000000000000D5
:1041E10000000000000000000000000000000000CE
:1041F10000000000000000000000000000000000BE
:1042010000000000000000000C1C7CF8F8F8C80851
:104211000808C8C8C8C8D8D8D8D8D8D8D8D8D8D8FD
:10422100D8D8D8D8D8D8D8D8D8D8D8D8D8D8D8D80D
:10423100D8D8C8C8C8C8CCCCCCCCECECECE6E6E607
:10424100F6F7F6E6E6E4ECECECCCCCCCC8C8C8C892
:10425100C8C8C8D8D8D8D8D8D8D8D8D8D8D8D8D80D
:10426100D8D8D8D8D8D8C8C8C8C8C8C8C8C8C8C86D
:10427100C808080808000000000000000000000055
:104281000000000000000000000000031FFFFFFF0E
:10429100F000011FFFFFFFFFFFFFFFFFE7FFE7F751
:1042A100E7FFFFE7F7FFEFE7E7EFFFE7F7E7E7E70D
:1042B100E7E7E7FFE7EFE7E7C7C7CFC7F7FFE7E7BD
:1042C100E7E7FFE7F7E7EFE7C7C7E7FFE7F7E7FF4D
:1042D100E7E7E7EFFFE7D7E7FFE7E7E7FFE7FFE715
:1042E100E7EFE7E7E7FFE7FFFFFFFFFFFFFFFF0F55
:1042F1000000E0FEF8FC06000000000000000000E5
:10430100000000000000000000000080F0FFFF3FFF
:104311000700C0FCFFFFFFFFFFFFFFFFFFFFFFFFE5
:10432100FFFFFFFFBFBFDFCFC5C1F103070707E7EE
:10433100E7E7E7E7E7E7E7E7E7E7E7E7E7C7C7E74C
:10434100EFEFEFEFCF4F4F4FCFDF9F9F3F3F3F7FCC
:10435100FFFFFFFFFFFFFFFFFFFFFFFFFFFFFFFF6C
:10436100FFFFFFFF7FFFFFFFFFFFFFFFFFFFFFF0EB
:104371008000073FFFFFE080000000000000000018
:104381000000000000000000C0F8FEFF1F0300E075
:10439100FCFFFFFFFFFFFFFFFFF7F7F7F7FFFFFF4F
:1043A100FFFFFFFFFFFFFFFFFFFFFF00000000CF48
:1043B100CFCFCFCFCFCFCFCFCFCBC1C1C1C9C9C94C
:1043C100C1E1E1E1FCFC7E7E7E7F3F3F1F1E00409C
:1043D10060F1FFFFFFFFFFFFFFFFFFFFFFFFFFFF99
:1043E100FFFFFFFFFEFEFFFFFFFFFFFFFFFFFFFFDE
:1043F100FFFEF8E000031FFFFEF8C0000000000010
:1044010000000000000000000F7FFFFFC000003F20
:10441100FFFFFFFFFFFFFFFFFFFFFFFFFFFFFFFFAB
:10442100FFFFFFFFFFFFFFFFFFFFFF00000000FF97
:10443100FFFFFBFBFBF9FDFEFFFF0000003838B872
:10444100B8B8BAB2928286CEFEFFFFFFFFFFFEFE32
:10445100FC7C30010387FFFFFFFFFFFFFFFFFFFF32
:10446100FFFFFFFFFFFFFFFFFFFFFFFFFFFFDFFF7B
:10447100FFFFFF3F0000C0FFFFFF1F000000000023
:104481000000000000000000000001030F1F1C38A5
:1044910070E3C78F9F1F3F7F7FFFFFFFFFFFFFFF7E
:1044A100FFFFFFFFFFFFFFFFFF7F7FE0E0E0E0EFA7
:1044B100EFEFEFEFEFEFEFEFEFEFEFEFEFEFEFEF0B
:1044C100EFE7E7E7E7E7E767272787C3F3F3F9F9BB
:1044D100F8FCFCFEFFFFFFFFFFFFFFFFFFFFFFFFF9
:1044E100FFFFFFFFFFFFFFFFFFFF7F7F3F1F8FCF1B
:1044F100C7E170383E1F0F070100000000000000F7
:1045010000000000000000000000000000000000AA
:10451100000000010103020604040001010313234A
:1045210027276F4F4FCF9F9B99983C3E3F3F7F7FFF
:104531007F7F7F7FFFFFFFFFFFFFF7FFFBFFF3FFA2
:10454100FBFFFFFBFEFAF8F0FEFFFFFFFFFFFF7F1F
:104551007F7F7F7F7F3F3F3FBF9F9F9FDFCF4F4F3A
:1045610067272733331319190C0C060603030101BE
:10457100000000000000000000000000000000003A
:10458100000000000000000000000000000000002A
:10459100000000000000000000000000000000001A
:1045A10000000000000000000001010101010303FF
:1045B100020202020606040404040405050D0D09A5
:1045C1000909090D0505050504040404060602028E
:1045D10002020203010101010100000000000000CC
:1045E10000000000000000000000000000000000CA
:1045F10000000000000000000000000000000000BA
:03460100454E0023
:06460400425559554B0020
:09460A0053414D5049594F4E0037
:06461300425559554B0011
:0646190046454E4552002B
:06461F0046454E45520025
:03462500454E00FF
:03462800454E00FC
:06462B00425559554B00F9
:0646310046454E45520013
:03463700454E00ED
:06463A0046454E4552000A
:03464000454E00E4
:0946430053414D5049594F4E00FE
:06464C00425559554B00D8
:0646520046454E455200F2
:1046580053747564656E74204E756D6265723A2088
:0A4668003135303430333030350086
:10467200506C6561736520507265737320616E7949
:014682000037
:104683004E616D653A2054757268616E2043616EA8
:08469300204B617267696E00A3
:10469B0041737369676E6D656E74204E616D653A1B
:0146AB00000E
:1046AC005475726B697368205375706572204C6514
:0546BC00616775650057
:1046C100427574746F6E206F6E204B6579706164F2
:0146D10000E8
:0146D20000E7
:1046D300746F2073656520596F757220537570650B
:0246E300720063
:0C46E5004C6561677565205465616D00CF
:0646F100425559554B0033
:0346F700454E002D
:0946FA0053414D5049594F4E0047
:0647030046454E45520040
:020000040030CA
:0D000100231F3CFFBF81FF0FC00FE00F4029
:00000001FF
